:020000040800F2
:1000000000280020151A0008A5190008AB190008DF
:10001000B1190008B7190008BD1900080000000058
:10002000000000000000000000000000C3190008EC
:10003000CF19000800000000DB190008E7190008CC
:100040005D1A00085D1A00085D1A00085D1A0008B4
:100050005D1A00085D1A00085D1A00085D1A0008A4
:100060005D1A00085D1A00085D1A00085D1A000894
:100070005D1A00085D1A00085D1A00085D1A000884
:100080005D1A00085D1A00085D1A00085D1A000874
:100090005D1A00085D1A00085D1A00085D1A000864
:1000A0005D1A00085D1A00085D1A00085D1A000854
:1000B000F51900085D1A0008000000005D1A00082C
:1000C0005D1A000800000000000000005D1A000832
:1000D000000000005D1A00085D1A00080000000022
:1000E0005D1A00085D1A00085D1A00080000000093
:1000F0000000000000000000000000000000000000
:0C01000000000000000000005FF808F1A3
:10010C0010B5054C237833B9044B13B10448AFF345
:10011C0000800123237010BD180000200000000097
:10012C00A430000808B5034B1BB103490348AFF3D7
:10013C00008008BD000000001C000020A430000856
:10014C0080F0004002E000BF81F0004142001FBF80
:10015C005FEA410392EA030F7FEA226C7FEA236C89
:10016C006AD04FEA1262D2EB1363C1BFD21841407E
:10017C0048404140B8BF5B42192B88BF704710F014
:10018C00004F40F4000020F07F4018BF404211F0B7
:10019C00004F41F4000121F07F4118BF494292EA1F
:1001AC00030F3FD0A2F1010241FA03FC10EB0C004B
:1001BC00C3F1200301FA03F100F0004302D54942D8
:1001CC0060EB4000B0F5000F13D3B0F1807F06D385
:1001DC0040084FEA310102F10102FE2A51D2B1F17D
:1001EC00004F40EBC25008BF20F0010040EA030072
:1001FC007047490040EB0000013A28BFB0F5000FF2
:10020C00EDD2B0FA80FCACF1080CB2EB0C0200FAA7
:10021C000CF0AABF00EBC25052421843BCBFD040F6
:10022C001843704792F0000F81F4000106BF80F470
:10023C0000000132013BB5E74FEA41037FEA226C33
:10024C0018BF7FEA236C21D092EA030F04D092F0FE
:10025C00000F08BF0846704790EA010F1CBF002032
:10026C00704712F07F4F04D1400028BF40F000408F
:10027C00704712F100723CBF00F50000704700F0AF
:10028C00004343F0FE4040F4000070477FEA2262D6
:10029C0016BF08467FEA23630146420206BF5FEAA7
:1002AC00412390EA010F40F4800070474FF00003A7
:1002BC0004E000BF10F0004348BF40425FEA000C6E
:1002CC0008BF704743F0964301464FF000001CE016
:1002DC0050EA010208BF70474FF000030AE000BF6C
:1002EC0050EA010208BF704711F0004302D54042AA
:1002FC0061EB41015FEA010C02BF8446014600201C
:10030C0043F0B64308BFA3F18053A3F50003BCFA36
:10031C008CF2083AA3EBC25310DB01FA02FC6344E3
:10032C0000FA02FCC2F12002BCF1004F20FA02F2EA
:10033C0043EB020008BF20F00100704702F12002DD
:10034C0001FA02FCC2F1200250EA4C0021FA02F23E
:10035C0043EB020008BF20EADC7070474FF0FF0C43
:10036C001CEAD0521EBF1CEAD15392EA0C0F93EA3E
:10037C000C0F6FD01A4480EA010C400218BF5FEAE0
:10038C0041211ED04FF0006343EA501043EA511153
:10039C00A0FB01310CF00040B1F5000F3EBF49004D
:1003AC0041EAD3715B0040EA010062F17F02FD2A51
:1003BC001DD8B3F1004F40EBC25008BF20F0010034
:1003CC00704790F0000F0CF0004C08BF49024CEA4B
:1003DC00502040EA51207F3AC2BFD2F1FF0340EADD
:1003EC00C250704740F400004FF00003013A5DDC4E
:1003FC0012F1190FDCBF00F000407047C2F100028F
:10040C00410021FA02F1C2F1200200FA02FC5FEA7B
:10041C00310040F1000053EA4C0308BF20EADC70C5
:10042C00704792F0000F00F0004C02BF400010F437
:10043C00000F013AF9D040EA0C0093F0000F01F0E4
:10044C00004C02BF490011F4000F013BF9D041EA06
:10045C000C018FE70CEAD15392EA0C0F18BF93EA08
:10046C000C0F0AD030F0004C18BF31F0004CD8D132
:10047C0080EA010000F00040704790F0000F17BFB9
:10048C0090F0004F084691F0000F91F0004F14D0FF
:10049C0092EA0C0F01D142020FD193EA0C0F03D157
:1004AC004B0218BF084608D180EA010000F000405A
:1004BC0040F0FE4040F40000704740F0FE4040F435
:1004CC00400070474FF0FF0C1CEAD0521EBF1CEAD4
:1004DC00D15392EA0C0F93EA0C0F69D0A2EB0302F2
:1004EC0080EA010C49024FEA402037D04FF080538C
:1004FC0043EA111143EA10130CF000408B4238BF51
:10050C005B0042F17D024FF4000C8B4224BF5B1A5E
:10051C0040EA0C00B3EB510F24BFA3EB510340EAAC
:10052C005C00B3EB910F24BFA3EB910340EA9C005A
:10053C00B3EBD10F24BFA3EBD10340EADC001B01CA
:10054C0018BF5FEA1C1CE0D1FD2A3FF650AF8B426E
:10055C0040EBC25008BF20F0010070470CF0004C7B
:10056C004CEA50207F32C2BFD2F1FF0340EAC250A6
:10057C00704740F400004FF00003013A37E792F067
:10058C00000F00F0004C02BF400010F4000F013AC5
:10059C00F9D040EA0C0093F0000F01F0004C02BFC0
:1005AC00490011F4000F013BF9D041EA0C0195E729
:1005BC000CEAD15392EA0C0F08D142027FF47DAFC2
:1005CC0093EA0C0F7FF470AF084676E793EA0C0FB2
:1005DC0004D14B023FF44CAF08466EE730F0004CB0
:1005EC0018BF31F0004CCAD130F000427FF45CAF40
:1005FC0031F000437FF43CAF5FE700BF4FEA4002AD
:10060C00B2F1FE4F0FD34FF09E03B3EB12620DD934
:10061C004FEA002343F0004310F0004F23FA02F09E
:10062C0018BF404270474FF00000704712F1610F45
:10063C0001D1420205D110F0004008BF6FF000401C
:10064C0070474FF00000704780B483B000AF0023B8
:10065C007B6020E0144A7B68012142F82310134A86
:10066C007B68012142F82310114A7B68012142F872
:10067C002310104A7B68012142F823100E4A7B6834
:10068C00002142F823100D4A7B68C82142F8231040
:10069C007B6801337B607B68022BDBDD00BF00BF16
:1006AC000C37BD4680BC70479C000020A800002081
:1006BC00900000206C0000208400002078000020B6
:1006CC0080B483B000AF7860094A7B6852F823305D
:1006DC00012B06D1064A7B68002142F82310012326
:1006EC0000E0002318460C37BD4680BC704700BFA5
:1006FC008400002080B483B000AF7860044A7B682B
:10070C00012142F8231000BF0C37BD4680BC704756
:10071C008400002080B582B000AF00237B607EE0B7
:10072C00434A7B6852F8232042497B6841F82320D6
:10073C00414A7B6852F823203D497B6841F82320CD
:10074C007B68022B21D07B68022B2ADC7B68002B78
:10075C0003D07B68012B0CD023E04FF400513748B9
:10076C0001F062FC03461946334A7B6842F82310B9
:10077C0018E04FF48041314801F056FC034619460D
:10078C002D4A7B6842F823100CE04FF400412B48B3
:10079C0001F04AFC03461946274A7B6842F82310AD
:1007AC0000E000BF234A7B6852F8232020497B6875
:1007BC0051F823309A422FD11D4A7B6852F82320DE
:1007CC001D497B6851F823309A4225D11C4A7B681D
:1007DC0052F8232018497B6851F823309A421BD0D9
:1007EC00154A7B6852F8232015497B6841F8232071
:1007FC00114A7B6852F82330002B08D17868FFF738
:10080C0079FF104A7B68C82142F8231004E00C4A97
:10081C007B68012142F823107B6801337B607B6885
:10082C00022B7FF77DAF00BF00BF0837BD4680BDF0
:10083C00A80000209C000020900000200010014027
:10084C006C0000207800002080B400AF124B1B68B5
:10085C00124A82FB03129211DB17D31A104A13604F
:10086C00104B1B680D4A82FB03129211DB17D31A33
:10087C000D4A13600D4B1B68084A82FB0312921140
:10088C00DB17D31A0A4A13600A4B01221A6000BF05
:10089C00BD4680BC704700BF00000020D34D6210E5
:1008AC00C000002004000020BC0000200800002034
:1008BC00B40000204000002080B500AF0020FFF7FE
:1008CC00FFFE0346002B19D000F0E0FC7F4B0B22FF
:1008DC001A607F4B02221A607E4B1B687E4A1360A3
:1008EC007E4B1B687E4A13607E4B1B687E4A1360EE
:1008FC000120FFF7E5FE0220FFF7E2FE734B1B68B9
:10090C00042B00F2CC8001A252F823F02D09000830
:10091C003D09000893090008F5090008490A000878
:10092C0000F0B4FC694B01221A60FFF78DFFBFE0A9
:10093C00002000F0CFFC032000F0CCFC6B4B1B68BC
:10094C006B4A13606B4B1B686B4A1360674B1B68DD
:10095C00013B664A1360674B1B68013B654A136099
:10096C00644B1B68002B00F39C80584B02221A60CE
:10097C005C4B1B68614A82FB03129211DB17D31A82
:10098C005F4A13608DE0052000F0A4FC574B1B68F8
:10099C00574A13605A4B1B68574A1360534B1B68DA
:1009AC00013B524A1360564B1B68013B544A13607F
:1009BC004E4B1B68002B76DC444B03221A60454BD4
:1009CC001B684E4A82FB03129211DB17D31A474A5B
:1009DC001360424B1B68494A82FB03129211DB17CE
:1009EC00D31A444A13605EE0022000F073FC01202D
:1009FC0000F070FC3F4B1B683D4A13603B4B1B687F
:100A0C003D4A1360394B1B68013B384A1360394B24
:100A1C001B68013B374A1360364B1B68002B44DCC8
:100A2C002A4B04221A602F4B1B68344A82FB031298
:100A3C009211DB17D31A324A136036E0042000F00F
:100A4C0049FC2F4B1B682A4A1360284B1B682A4A07
:100A5C001360264B1B68013B244A1360284B1B6810
:100A6C00013B274A1360214B1B68002B1FDC174BE3
:100A7C0001221A60174B1B68204A82FB0312921149
:100A8C00DB17D31A194A1360144B1B681B4A82FBE1
:100A9C0003129211DB17D31A164A136007E000BF3A
:100AAC0006E000BF04E000BF02E000BF00E000BFB2
:100ABC00074B1B68012B07D10D4B1B680E4A1268A4
:100ACC001146184600F0A6FB00BF80BD3400002084
:100ADC004000002000000020B8000020040000208E
:100AEC00C800002008000020C4000020C000002026
:100AFC0038000020BC0000203C000020D34D6210C8
:100B0C00B400002080B500AF9E4B1B680B3B032B41
:100B1C0000F22E8101A252F823F000BF390B00081D
:100B2C00450C0008BF0B00081B0D0008002000F04E
:100B3C0051FC954B1868954B1B68954A82FB031228
:100B4C009211DB17D31A194600F064FB0020FFF753
:100B5C00B7FD0346002B0FD00220FFF7B1FD034673
:100B6C00002B03D18B4B1B68884A1360854B0D22DD
:100B7C001A60854B03221A600120FFF7A1FD034682
:100B8C00002B00F0F780804B1B68022B40F0F280AA
:100B9C007E4B1B6803F57A737C4A13607B4B1B6896
:100BAC007D4A934240F3E680784B4FF47A721A6098
:100BBC00E0E0042000F00EFC734B1868774B1B68C8
:100BCC00734A82FB03129211DB17D31A194600F0F9
:100BDC0021FB0020FFF774FD0346002B0FD00220F1
:100BEC00FFF76EFD0346002B03D16D4B1B686B4A60
:100BFC001360644B0C221A60634B04221A600120B0
:100C0C00FFF75EFD0346002B00F0B6805E4B1B68C1
:100C1C00032B40F0B180614B1B6803F57A735F4A7C
:100C2C0013605E4B1B685C4A934240F3A5805B4BA0
:100C3C004FF47A721A609FE0022000F0CBFB524B0B
:100C4C001868584B1B68524A82FB03129211DB172F
:100C5C00D31A194600F0DEFA0020FFF731FD0346E7
:100C6C00002B3AD00220FFF72BFD0346002B03D1BB
:100C7C004D4B1B684B4A13604A4B1A68474B1B6819
:100C8C001A44424B1B689A4224D13E4B01221A60F3
:100C9C003E4B1B683E4A82FB03129211DB17D31AA0
:100CAC00424A13603F4B1B68394A82FB0312921174
:100CBC00DB17D31A3E4A1360384B1B68344A82FB4D
:100CCC0003129211DB17D31A3A4A13602E4B0122EE
:100CDC001A6002E02B4B0E221A600120FFF7F0FC89
:100CEC000346002B4AD0284B1B68042B46D12D4BB6
:100CFC001B6803F57A732B4A13602A4B1B68264A30
:100D0C0093423BDD274B4FF47A721A6036E01D4B51
:100D1C0001221A601F4B1B681C4A1360204B1B6876
:100D2C001E4A1360204B1B681E4A1360174B1B682E
:100D3C00174A82FB03129211DB17D31A1B4A13605A
:100D4C00184B1B68124A82FB03129211DB17D31A41
:100D5C00174A1360114B1B680D4A82FB0312921148
:100D6C00DB17D31A134A1360074B01221A6006E0F3
:100D7C0000BF04E000BF02E000BF00E000BF00BF06
:100D8C0080BD00BF34000020400000200000002087
:100D9C00D34D6210B8000020B8820100080000207A
:100DAC00C400002004000020C8000020C000002067
:100DBC00BC000020B400002080B500AF012240210F
:100DCC000A4801F048F901228021084801F043F952
:100DDC0001224FF48071054801F03DF901224FF4D6
:100DEC000071024801F037F900BF80BD00080140D6
:100DFC0080B582B000AF78607B68002B22D10022D6
:100E0C000121BD4801F027F900220221BA4801F066
:100E1C0022F900220421B84801F01DF90022082112
:100E2C00B54801F018F900221021B34801F013F96C
:100E3C0000222021B04801F00EF901224021AE48D9
:100E4C0001F009F97B68012B22D101220121AA486A
:100E5C0001F001F900220221A74801F0FCF8002260
:100E6C000421A54801F0F7F801220821A24801F05D
:100E7C00F2F801221021A04801F0EDF80122202106
:100E8C009D4801F0E8F8012240219B4801F0E3F86D
:100E9C007B68022B22D100220121974801F0DBF85C
:100EAC0000220221944801F0D6F801220421924834
:100EBC0001F0D1F8002208218F4801F0CCF8002273
:100ECC0010218D4801F0C7F8012220218A4801F039
:100EDC00C2F800224021884801F0BDF87B68032B42
:100EEC0022D100220121844801F0B5F80022022110
:100EFC00814801F0B0F8002204217F4801F0ABF8E2
:100F0C00002208217C4801F0A6F8012210217A4821
:100F1C0001F0A1F801222021774801F09CF8002271
:100F2C004021754801F097F87B68042B22D10122EF
:100F3C000121714801F08FF8002202216E4801F066
:100F4C008AF8002204216C4801F085F8012208215E
:100F5C00694801F080F801221021674801F07BF804
:100F6C0000222021644801F076F8002240216248DA
:100F7C0001F071F87B68052B22D1002201215E481B
:100F8C0001F069F8012202215B4801F064F80022AB
:100F9C000421594801F05FF800220821564801F05D
:100FAC005AF801221021544801F055F80022202152
:100FBC00514801F050F8002240214F4801F04BF805
:100FCC007B68062B22D1002201214B4801F043F80B
:100FDC0001220221484801F03EF800220421464833
:100FEC0001F039F800220821434801F034F80022BE
:100FFC001021414801F02FF8002220213E4801F039
:10100C002AF8002240213C4801F025F87B68072B88
:10101C0022D100220121384801F01DF800220221C2
:10102C00354801F018F800220421334801F013F878
:10103C0001220821304801F00EF8012210212E481F
:10104C0001F009F8012220212B4801F004F80122BB
:10105C004021294800F0FFFF7B68082B22D1002299
:10106C000121254800F0F7FF00220221224800F060
:10107C00F2FF00220421204800F0EDFF002208219D
:10108C001D4800F0E8FF002210211B4800F0E3FF90
:10109C0000222021184800F0DEFF002240211648D3
:1010AC0000F0D9FF7B68092B22D1002201211248C4
:1010BC0000F0D1FF002202210F4800F0CCFF0022EB
:1010CC0004210D4800F0C7FF002208210A4800F057
:1010DC00C2FF01221021084800F0BDFF0022202190
:1010EC00054800F0B8FF00224021034800F0B3FF90
:1010FC0000BF0837BD4680BD000C014080B582B0F2
:10110C0000AF78607B68032B7AD801A252F823F0E9
:10111C002D110008651100089D110008D51100085B
:10112C0000224021394800F096FF012280213748E7
:10113C0000F091FF01224FF48071344800F08BFFD6
:10114C0001224FF40071314800F085FF304B1B68D1
:10115C001846FFF74DFE54E0012240212B4800F0C9
:10116C007AFF00228021294800F075FF01224FF4FC
:10117C008071264800F06FFF01224FF40071234864
:10118C0000F069FF224B5B681846FFF731FE38E030
:10119C00012240211D4800F05EFF012280211B48E6
:1011AC0000F059FF00224FF48071184800F053FFF3
:1011BC0001224FF40071154800F04DFF144B9B6851
:1011CC001846FFF715FE1CE0012240210F4800F0E5
:1011DC0042FF012280210D4800F03DFF01224FF417
:1011EC0080710A4800F037FF00224FF40071074865
:1011FC0000F031FF064BDB681846FFF7F9FD00E005
:10120C0000BF00BF0837BD4680BD00BF00080140CD
:10121C004400002080B483B000AF786039607B68F4
:10122C00184A82FB03129210DB17D31A164A13606A
:10123C007968144B83FB01239A10CB17D21A1346EF
:10124C009B0013445B00CA1A0F4B5A603B680D4A53
:10125C0082FB03129210DB17D31A0B4A9360396886
:10126C00084B83FB01239A10CB17D21A13469B0011
:10127C0013445B00CA1A044BDA6000BF0C37BD463E
:10128C0080BC7047676666664400002080B500AF7E
:10129C00012201210E4800F0DEFE012208210C483B
:1012AC0000F0D9FE01220221094800F0D4FE0122EF
:1012BC001021074800F0CFFE01220421044800F061
:1012CC00CAFE01222021024800F0C5FE00BF80BDED
:1012DC000008014080B582B000AF0346FB71FB797A
:1012EC00052B6FD801A252F823F000BF1113000890
:1012FC0031130008511300087113000891130008F2
:10130C00B113000800220121314800F0A4FE012293
:10131C0004212F4800F09FFE012202212C4800F0EE
:10132C009AFE50E000220821294800F094FE012288
:10133C002021274800F08FFE01221021244800F0C4
:10134C008AFE40E001220121214800F084FE0022A7
:10135C0004211F4800F07FFE012202211C4800F0EE
:10136C007AFE30E001220821194800F074FE0022B8
:10137C002021174800F06FFE01221021144800F0C4
:10138C006AFE20E001220121114800F064FE0122D6
:10139C0004210F4800F05FFE002202210C4800F0EF
:1013AC005AFE10E001220821094800F054FE0122E7
:1013BC002021074800F04FFE00221021044800F0C5
:1013CC004AFE00E000BF00BF0837BD4680BD00BF2D
:1013DC000008014080B582B000AF0346FB71FB7979
:1013EC00042B40D0042B5BDC002B02D0022B1DD035
:1013FC0056E001212D4800F046FE012204212B4825
:10140C0000F029FE01220221284800F024FE0821C8
:10141C00264800F038FE01222021244800F01BFE53
:10142C0001221021214800F016FE3AE00122012190
:10143C001E4800F010FE04211C4800F024FE01227E
:10144C0002211A4800F007FE01220821174800F07B
:10145C0002FE2021154800F016FE0122102113482F
:10146C0000F0F9FD1DE001220121104800F0F3FD10
:10147C00012204210D4800F0EEFD02210B4800F082
:10148C0002FE01220821094800F0E5FD012220217D
:10149C00064800F0E0FD1021044800F0F4FD00E0E7
:1014AC0000BF00BF0837BD4680BD00BF000801402B
:1014BC0080B582B000AF00F0CDFA00F049F800F032
:1014CC0083F800F001F91E4801F022FAFFF7BCF88E
:1014DC00FFF772FC4FF47A7000F092F94FF47A70C7
:1014EC0000F074F9FA2000F0A5F900237B60FFF7F7
:1014FC00E3F9144B1B68002B05D04FF47A7000F005
:10150C0065F9FFF7D9F9104B1B68002B0DD0FA20A9
:10151C0000F076F97B685A1C7A601846FFF7EEFDEE
:10152C007B68032B01DD00237B60084B1B68002BC1
:10153C00DFD0FA2000F07EF9FFF7E4FAD9E700BF1C
:10154C00D0000020540000205C000020640000202B
:10155C0080B590B000AF07F118032822002118467F
:10156C0001F092FD3B1D00221A605A609A60DA600D
:10157C001A610223BB610123BB621023FB620023AF
:10158C007B6307F11803184600F096FD0346002B09
:10159C0001D000F015F90F237B600023BB60002302
:1015AC00FB6000233B6100237B613B1D002118463F
:1015BC0001F002F80346002B01D000F001F900BF46
:1015CC004037BD4680BD000090B587B000AF07F135
:1015DC00080300221A605A609A60DA603B460022C7
:1015EC001A605A60344B4FF080421A60324B41F60D
:1015FC003F725A60304B00229A602F4B0922DA60FE
:10160C002D4B00221A612C4B00229A612A4801F0C2
:10161C002FF90346002B01D000F0D2F84FF4805381
:10162C00BB6007F108031946234801F0C5FA0346CD
:10163C00002B01D000F0C4F800233B6000237B603A
:10164C003B4619461C4801F091FC0346002B01D087
:10165C0000F0B6F8184B5B681846FEF727FE0346F9
:10166C004FF07E511846FEF771FD03461C46124B97
:10167C00DB681846FEF71AFE03464FF07E511846FB
:10168C00FEF764FD034619462046FEF767FE034647
:10169C000A491846FEF716FF034609491846FEF795
:1016AC005DFE03461846FEF7A9FF0346054A136084
:1016BC0000BF1C37BD4690BDD00000200024F44A6A
:1016CC0000007A44CC00002080B588B000AF07F150
:1016DC00100300221A605A609A60DA602E4B9B69E4
:1016EC002D4A43F0100393612B4B9B6903F01003BD
:1016FC00FB60FB68284B9B69274A43F0040393610A
:10170C00254B9B6903F00403BB60BB68224B9B69B0
:10171C00214A43F0080393611F4B9B6903F00803B4
:10172C007B607B68002240F2FF311C4800F093FC88
:10173C0000227F211A4800F08EFC4FF460433B617D
:10174C0000237B610123BB6107F110031946154887
:10175C0000F0F0FA40F2FF333B6101237B61002380
:10176C00BB610223FB6107F1100319460B4800F023
:10177C00E1FA7F233B6101237B610023BB610223E0
:10178C00FB6107F110031946054800F0D3FA00BFBE
:10179C002037BD4680BD00BF00100240000801404C
:1017AC00000C01400010014080B582B000AF7860A1
:1017BC00FEF7B0FF00F058F800BF0837BD4680BDFB
:1017CC0080B400AF72B600BFFEE7000080B483B0F7
:1017DC0000AF7860074B1B687A6892FBF3F3064AFC
:1017EC001360064B00221A6000BF0C37BD4680BC4C
:1017FC00704700BFCC00002058000020540000208F
:10180C0080B483B000AF7860074B1B687A6892FB9A
:10181C00F3F3064A1360064B00221A6000BF0C3724
:10182C00BD4680BC704700BFCC000020600000208B
:10183C005C00002080B483B000AF7860074B1B685D
:10184C007A6892FBF3F3064A1360064B00221A6087
:10185C0000BF0C37BD4680BC704700BFCC000020D9
:10186C00680000206400002080B400AF194B1B6896
:10187C00002B0BDB174B1B68013B164A1360154BF7
:10188C001B68002B02DC144B01221A60134B1B68E3
:10189C00002B0BDB114B1B68013B104A13600F4BE9
:1018AC001B68002B02DC0E4B01221A600D4B1B68CF
:1018BC00002B0BDB0B4B1B68013B0A4A1360094BDB
:1018CC001B68002B02DC084B01221A6000BFBD46CE
:1018DC0080BC70475800002054000020600000209D
:1018EC005C000020680000206400002080B485B0FB
:1018FC0000AF154B9B69144A43F001039361124BE3
:10190C009B6903F00103BB60BB680F4BDB690E4A9C
:10191C0043F08053D3610C4BDB6903F080537B6045
:10192C007B680A4B5B68FB60FB6823F0E063FB6041
:10193C00FB6843F08063FB60044AFB68536000BFA4
:10194C001437BD4680BC70470010024000000140B7
:10195C0080B584B000AF78607B681B68B3F1804FB2
:10196C0013D10C4BDB690B4A43F00103D361094BD8
:10197C00DB6903F00103FB60FB68002200211C20E3
:10198C0000F0A1F91C2000F0BAF900BF1037BD46D9
:10199C0080BD00BF0010024080B400AFFEE780B4F1
:1019AC0000AFFEE780B400AFFEE780B400AFFEE707
:1019BC0080B400AFFEE780B400AF00BFBD4680BC72
:1019CC00704780B400AF00BFBD4680BC704780B488
:1019DC0000AF00BFBD4680BC704780B500AF00F0C3
:1019EC007FF800BF80BD000080B500AF024800F05A
:1019FC00DBFF00BF80BD00BFD000002080B400AF73
:101A0C0000BFBD4680BC7047FFF7F8FF0B480C4980
:101A1C000C4A002302E0D458C4500433C4188C423E
:101A2C00F9D3094A094C002301E013600432A242A5
:101A3C00FBD301F005FBFFF73BFD704700000020D6
:101A4C0018000020E8300008180000201C010020BD
:101A5C00FEE7000080B500AF084B1B68074A43F057
:101A6C0010031360032000F023F90F2000F008F896
:101A7C00FFF73CFF0023184680BD00BF002002404A
:101A8C0080B582B000AF7860124B1A68124B1B788D
:101A9C0019464FF47A73B3FBF1F3B2FBF3F3184628
:101AAC0000F03BF90346002B01D001230EE07B68CC
:101ABC000F2B0AD8002279684FF0FF3000F003F9A1
:101ACC00064A7B681360002300E0012318460837A0
:101ADC00BD4680BD0C00002014000020100000202A
:101AEC0080B400AF054B1B781A46054B1B6813449A
:101AFC00034A136000BFBD4680BC70471400002031
:101B0C001801002080B400AF024B1B681846BD467C
:101B1C0080BC70471801002080B485B000AF78609D
:101B2C007B6803F00703FB600C4BDB68BB60BA6897
:101B3C004FF6FF031340BB60FB681A02BB681343EC
:101B4C0043F0BF6343F40033BB60044ABB68D3600B
:101B5C0000BF1437BD4680BC704700BF00ED00E0ED
:101B6C0080B400AF044BDB681B0A03F00703184674
:101B7C00BD4680BC704700BF00ED00E080B483B070
:101B8C0000AF0346FB7197F90730002B0BDBFB7999
:101B9C0003F01F02064997F907305B09012000FA90
:101BAC0002F241F8232000BF0C37BD4680BC7047C1
:101BBC0000E100E080B483B000AF03463960FB71F4
:101BCC0097F90730002B0ADB3B68DAB20C4997F91E
:101BDC0007301201D2B20B4483F800230AE03B68B1
:101BEC00DAB20849FB7903F00F03043B1201D2B2BD
:101BFC000B441A7600BF0C37BD4680BC704700BF43
:101C0C0000E100E000ED00E080B489B000AFF860C6
:101C1C00B9607A60FB6803F00703FB61FB69C3F1F1
:101C2C000703042B28BF0423BB61FB690433062B79
:101C3C0002D9FB69033B00E000237B614FF0FF32CC
:101C4C00BB6902FA03F3DA43BB681A407B699A401A
:101C5C004FF0FF317B6901FA03F3D9437B680B40EA
:101C6C00134318462437BD4680BC704780B582B0FC
:101C7C0000AF78607B68013BB3F1807F01D3012317
:101C8C000FE00A4A7B68013B53600F214FF0FF3095
:101C9C00FFF790FF054B00229A60044B07221A6055
:101CAC00002318460837BD4680BD00BF10E000E099
:101CBC0080B582B000AF78607868FFF72DFF00BF69
:101CCC000837BD4680BD80B586B000AF0346B9600D
:101CDC007A60FB7300237B61FFF742FF78617A68BF
:101CEC00B9687869FFF790FF024697F90F301146F3
:101CFC001846FFF75FFF00BF1837BD4680BD80B5A3
:101D0C0082B000AF0346FB7197F907301846FFF716
:101D1C0035FF00BF0837BD4680BD80B582B000AF2F
:101D2C0078607868FFF7A2FF034618460837BD466F
:101D3C0080BD000080B48BB000AF786039600023A8
:101D4C007B6200233B6248E101227B6A02FA03F3C7
:101D5C00FB613B681B68FA691340BB61BA69FB699C
:101D6C009A4240F037813B685B68A34A93425ED04D
:101D7C00A14A934275D8A14A934258D09F4A9342A4
:101D8C006FD89F4A934252D09D4A934269D89D4A3C
:101D9C0093424CD09B4A934263D89B4A934246D081
:101DAC00994A93425DD8122B2AD8122B59D801A2EA
:101DBC0052F823F03B1E0008151E0008271E0008D1
:101DCC00691E00086F1E00086F1E00086F1E0008B9
:101DDC006F1E00086F1E00086F1E00086F1E0008A3
:101DEC006F1E00086F1E00086F1E00086F1E000893
:101DFC006F1E00086F1E00081D1E0008311E000813
:101E0C00824A934213D02CE03B68DB683B6229E0AA
:101E1C003B68DB6804333B6224E03B68DB680833D7
:101E2C003B621FE03B68DB680C333B621AE03B68AB
:101E3C009B68002B02D104233B6213E03B689B6838
:101E4C00012B05D108233B627B68FA691A6109E012
:101E5C0008233B627B68FA695A6103E000233B620A
:101E6C0000E000BFBB69FF2B01D87B6801E07B68F9
:101E7C0004337B61BB69FF2B02D87B6A9B0002E0B9
:101E8C007B6A083B9B003B617B691A680F213B69AD
:101E9C0001FA03F3DB431A40396A3B6901FA03F395
:101EAC001A437B691A603B685B6803F08053002B14
:101EBC0000F09080564B9B69554A43F001039361A7
:101ECC00534B9B6903F00103BB60BB68514A7B6AAF
:101EDC009B08023352F82330FB607B6A03F0030348
:101EEC009B000F2202FA03F3DB43FA681340FB60FA
:101EFC007B68494A93420DD07B68484A934207D08D
:101F0C007B68474A934201D1022304E0032302E099
:101F1C00012300E000237A6A02F00302920093404E
:101F2C00FA681343FB603B497B6A9B080233FA68EF
:101F3C0041F823203B685B6803F48013002B06D028
:101F4C00384B9A683749BB6913438B6006E0354BB5
:101F5C009A68BB69DB43334913408B603B685B6811
:101F6C0003F40013002B06D02E4BDA682D49BB6905
:101F7C001343CB6006E02B4BDA68BB69DB43294982
:101F8C001340CB603B685B6803F40033002B06D036
:101F9C00244B5A682349BB6913434B6006E0214B21
:101FAC005A68BB69DB431F4913404B603B685B6855
:101FBC0003F48033002B06D01A4B1A681949BB69FD
:101FCC0013430B6006E0174B1A68BB69DB431549DA
:101FDC0013400B607B6A01337B623B681A687B6A37
:101FEC0022FA03F3002B7FF4AFAE00BF00BF2C37F7
:101FFC00BD4680BC704700BF00003210000031109D
:10200C00000022100000211000001210000011101E
:10201C00001002400000014000080140000C01408B
:10202C00001001400004014080B485B000AF78601E
:10203C000B467B807B689A687B881340002B02D010
:10204C000123FB7301E00023FB73FB7B1846143761
:10205C00BD4680BC704780B483B000AF78600B463F
:10206C007B8013467B707B78002B03D07A887B684F
:10207C001A6103E07B881A047B681A6100BF0C3775
:10208C00BD4680BC704780B485B000AF78600B460D
:10209C007B807B68DB68FB607A88FB6813401A04E2
:1020AC00FB68D9437B880B401A437B681A6100BFDD
:1020BC001437BD4680BC704780B586B000AF7860E1
:1020CC007B68002B01D101236CE27B681B6803F059
:1020DC000103002B00F08780924B5B6803F00C032C
:1020EC00042B0CD08F4B5B6803F00C03082B12D124
:1020FC008C4B5B6803F48033B3F5803F0BD1894B79
:10210C001B6803F40033002B6CD07B685B68002BDE
:10211C0068D1012346E27B685B68B3F5803F06D14A
:10212C00804B1B687F4A43F4803313602EE07B683E
:10213C005B68002B0CD17B4B1B687A4A23F48033F1
:10214C001360784B1B68774A23F4802313601DE0DF
:10215C007B685B68B3F5A02F0CD1724B1B68714A7E
:10216C0043F4802313606F4B1B686E4A43F4803337
:10217C0013600BE06B4B1B686A4A23F480331360CB
:10218C00684B1B68674A23F4802313607B685B6889
:10219C00002B13D0FFF7B6FC386108E0FFF7B2FC58
:1021AC0002463B69D31A642B01D90323FAE15D4B38
:1021BC001B6803F40033002BF0D014E0FFF7A2FCF3
:1021CC00386108E0FFF79EFC02463B69D31A642B8A
:1021DC0001D90323E6E1534B1B6803F40033002BB6
:1021EC00F0D100E000BF7B681B6803F00203002BFA
:1021FC0063D04C4B5B6803F00C03002B0BD0494BAA
:10220C005B6803F00C03082B1CD1464B5B6803F492
:10221C008033002B16D1434B1B6803F00203002BB9
:10222C0005D07B681B69012B01D00123BAE13D4B22
:10223C001B6823F0F8027B685B69DB0039491343A8
:10224C000B603AE07B681B69002B20D0364B0122D7
:10225C001A60FFF757FC386108E0FFF753FC0246A1
:10226C003B69D31A022B01D903239BE12D4B1B682D
:10227C0003F00203002BF0D02A4B1B6823F0F8026A
:10228C007B685B69DB00274913430B6015E0264B29
:10229C0000221A60FFF736FC386108E0FFF732FCC9
:1022AC0002463B69D31A022B01D903237AE11D4B59
:1022BC001B6803F00203002BF0D17B681B6803F052
:1022CC000803002B3AD07B689B69002B19D0174B65
:1022DC0001221A60FFF716FC386108E0FFF712FCC8
:1022EC0002463B69D31A022B01D903235AE10D4B49
:1022FC005B6A03F00203002BF0D0012000F09AFA85
:10230C001CE00A4B00221A60FFF7FCFB38610FE05F
:10231C00FFF7F8FB02463B69D31A022B08D90323BB
:10232C0040E100BF001002400000424280044242E3
:10233C009E4B5B6A03F00203002BE9D17B681B68A0
:10234C0003F00403002B00F0A6800023FB75974BD1
:10235C00DB6903F08053002B0DD1944BDB69934A5E
:10236C0043F08053D361914BDB6903F08053BB6026
:10237C00BB680123FB758E4B1B6803F48073002B29
:10238C0018D18B4B1B688A4A43F480731360FFF798
:10239C00B9FB386108E0FFF7B5FB02463B69D31A7D
:1023AC00642B01D90323FDE0814B1B6803F480737C
:1023BC00002BF0D07B68DB68012B06D17B4B1B6AB2
:1023CC007A4A43F0010313622DE07B68DB68002B33
:1023DC000CD1764B1B6A754A23F001031362734BC5
:1023EC001B6A724A23F0040313621CE07B68DB68EF
:1023FC00052B0CD16D4B1B6A6C4A43F00403136222
:10240C006A4B1B6A694A43F0010313620BE0674B8A
:10241C001B6A664A23F001031362644B1B6A634A0E
:10242C0023F0040313627B68DB68002B15D0FFF7E5
:10243C0069FB38610AE0FFF765FB02463B69D31A7A
:10244C0041F28832934201D90323ABE0574B1B6A0C
:10245C0003F00203002BEED014E0FFF753FB3861BE
:10246C000AE0FFF74FFB02463B69D31A41F2883270
:10247C00934201D9032395E04C4B1B6A03F00203F2
:10248C00002BEED1FB7D012B05D1484BDB69474A74
:10249C0023F08053D3617B68DB69002B00F08180D3
:1024AC00424B5B6803F00C03082B61D07B68DB6943
:1024BC00022B46D13F4B00221A60FFF723FB3861F9
:1024CC0008E0FFF71FFB02463B69D31A022B01D928
:1024DC00032367E0354B1B6803F00073002BF0D12E
:1024EC007B681B6AB3F5803F08D1304B5B6823F4E3
:1024FC0000327B689B682D4913434B602B4B5B6808
:10250C0023F474127B68196A7B685B6A0B43274956
:10251C0013434B60274B01221A60FFF7F3FA386123
:10252C0008E0FFF7EFFA02463B69D31A022B01D9F8
:10253C00032337E01D4B1B6803F00073002BF0D016
:10254C002FE01C4B00221A60FFF7DCFA386108E020
:10255C00FFF7D8FA02463B69D31A022B01D90323A1
:10256C0020E0124B1B6803F00073002BF0D118E035
:10257C007B68DB69012B01D1012313E00B4B5B68FA
:10258C00FB60FB6803F480327B681B6A9A4206D1BD
:10259C00FB6803F470127B685B6A9A4201D00123DA
:1025AC0000E0002318461837BD4680BD00100240DD
:1025BC00007000406000424280B584B000AF78608B
:1025CC0039607B68002B01D10123D0E06A4B1B687A
:1025DC0003F007033A689A4210D9674B1B6823F043
:1025EC00070265493B6813430B60634B1B6803F0A0
:1025FC0007033A689A4201D00123B8E07B681B6854
:10260C0003F00203002B20D07B681B6803F004034B
:10261C00002B05D0594B5B68584A43F4E063536078
:10262C007B681B6803F00803002B05D0534B5B68D9
:10263C00524A43F460535360504B5B6823F0F002F2
:10264C007B689B684D4913434B607B681B6803F0A8
:10265C000103002B40D07B685B68012B07D1474BF3
:10266C001B6803F40033002B15D101237FE07B683A
:10267C005B68022B07D1414B1B6803F00073002BE6
:10268C0009D1012373E03D4B1B6803F00203002BBF
:10269C0001D101236BE0394B5B6823F003027B68AB
:1026AC005B68364913434B60FFF72CFAF8600AE07D
:1026BC00FFF728FA0246FB68D31A41F2883293429C
:1026CC0001D9032353E02D4B5B6803F00C027B68AC
:1026DC005B689B009A42EBD1274B1B6803F0070306
:1026EC003A689A4210D2244B1B6823F00702224905
:1026FC003B6813430B60204B1B6803F007033A68DD
:10270C009A4201D0012332E07B681B6803F004037A
:10271C00002B08D0194B5B6823F4E0627B68DB6804
:10272C00164913434B607B681B6803F00803002BAE
:10273C0009D0124B5B6823F460527B681B69DB0089
:10274C000E4913434B6000F021F802460B4B5B68BB
:10275C001B0903F00F030A49CB5C22FA03F3094A65
:10276C001360094B1B681846FFF78AF900231846BB
:10277C001037BD4680BD00BF002002400010024053
:10278C00BC3000080C0000201000002080B487B082
:10279C0000AF0023FB600023BB6000237B610023A0
:1027AC007B6000233B611E4B5B68FB60FB6803F0A6
:1027BC000C03042B02D0082B03D027E0194B3B61F0
:1027CC0027E0FB689B0C03F00F03174AD35C7B607C
:1027DC00FB6803F48033002B10D0114B5B685B0C4F
:1027EC0003F00103114AD35CBB607B680D4A02FB0A
:1027FC0003F2BB68B2FBF3F37B6104E07B680C4A29
:10280C0002FB03F37B617B693B6102E0054B3B619F
:10281C0000BF3B6918461C37BD4680BC704700BFE3
:10282C000010024000127A00CC300008DC300008A6
:10283C0000093D0080B485B000AF78600A4B1B687E
:10284C000A4AA2FB03235B0A7A6802FB03F3FB60D0
:10285C0000BFFB685A1EFA60002BF9D100BF00BF05
:10286C001437BD4680BC70470C000020D34D62105D
:10287C0080B582B000AF78607B68002B01D101235A
:10288C0041E07B6893F83D30DBB2002B06D17B68CE
:10289C00002283F83C207868FFF75AF87B68022204
:1028AC0083F83D207B681A687B6804331946104610
:1028BC0000F06EFA7B68012283F846207B680122C7
:1028CC0083F83E207B68012283F83F207B6801223D
:1028DC0083F840207B68012283F841207B68012229
:1028EC0083F842207B68012283F843207B68012215
:1028FC0083F844207B68012283F845207B68012201
:10290C0083F83D20002318460837BD4680BD0000E3
:10291C0080B485B000AF78607B6893F83D30DBB253
:10292C00012B01D0012335E07B68022283F83D2086
:10293C007B681B68DA687B681B6842F00102DA600E
:10294C007B681B68164A934209D07B681B68B3F1FD
:10295C00804F04D07B681B68124A934211D17B686C
:10296C001B689B6803F00703FB60FB68062B10D009
:10297C007B681B681A687B681B6842F001021A604E
:10298C0007E07B681B681A687B681B6842F00102D1
:10299C001A60002318461437BD4680BC704700BF30
:1029AC00002C01400004004080B582B000AF78607C
:1029BC007B681B681B6903F00203022B22D17B6826
:1029CC001B68DB6803F00203022B1BD17B681B68BE
:1029DC006FF002021A617B6801221A777B681B6810
:1029EC009B6903F00303002B03D0786800F0B4F963
:1029FC0005E0786800F0A7F9786800F0B6F97B6814
:102A0C0000221A777B681B681B6903F00403042BF4
:102A1C0022D17B681B68DB6803F00403042B1BD1F9
:102A2C007B681B686FF004021A617B6802221A77BC
:102A3C007B681B689B6903F44073002B03D0786898
:102A4C0000F08AF905E0786800F07DF9786800F00C
:102A5C008CF97B6800221A777B681B681B6903F072
:102A6C000803082B22D17B681B68DB6803F0080382
:102A7C00082B1BD17B681B686FF008021A617B68FE
:102A8C0004221A777B681B68DB6903F00303002BB5
:102A9C0003D0786800F060F905E0786800F053F92D
:102AAC00786800F062F97B6800221A777B681B68F3
:102ABC001B6903F01003102B22D17B681B68DB68A9
:102ACC0003F01003102B1BD17B681B686FF01002F6
:102ADC001A617B6808221A777B681B68DB6903F430
:102AEC004073002B03D0786800F036F905E0786865
:102AFC0000F029F9786800F038F97B6800221A7721
:102B0C007B681B681B6903F00103012B0ED17B68EA
:102B1C001B68DB6803F00103012B07D17B681B6882
:102B2C006FF001021A617868FEF73EFE7B681B6845
:102B3C001B6903F08003802B0ED17B681B68DB685C
:102B4C0003F08003802B07D17B681B686FF0800239
:102B5C001A61786800F06BFA7B681B681B6903F0DC
:102B6C004003402B0ED17B681B68DB6803F04003ED
:102B7C00402B07D17B681B686FF040021A617868A4
:102B8C0000F0FCF87B681B681B6903F02003202B0A
:102B9C000ED17B681B68DB6803F02003202B07D168
:102BAC007B681B686FF020021A61786800F036FAB7
:102BBC0000BF0837BD4680BD80B584B000AF7860DB
:102BCC0039600023FB737B6893F83C30012B01D1F7
:102BDC000223B4E07B68012283F83C207B6802224C
:102BEC0083F83D207B681B689B68BB60BB6823F047
:102BFC007703BB60BB6823F47F43BB607B681B68B7
:102C0C00BA689A603B681B68B3F5005F3ED0B3F5B9
:102C1C00005F00F28780B3F5805F00F08680B3F52B
:102C2C00805F7FD8702B1AD0702B7BD8602B50D044
:102C3C00602B77D8502B3CD0502B73D8402B58D0CE
:102C4C00402B6FD8302B64D0302B6BD8202B60D01E
:102C5C00202B67D8002B5CD0102B5AD062E07B68FD
:102C6C0018683B6899683B685A683B68DB6800F0F9
:102C7C005EF97B681B689B68BB60BB6843F077039D
:102C8C00BB607B681B68BA689A604FE07B68186809
:102C9C003B6899683B685A683B68DB6800F047F909
:102CAC007B681B689A687B681B6842F480429A6058
:102CBC003CE07B6818683B6859683B68DB681A46DF
:102CCC0000F0BEF87B681B685021184600F015F91F
:102CDC002CE07B6818683B6859683B68DB681A46CF
:102CEC0000F0DCF87B681B686021184600F005F9E1
:102CFC001CE07B6818683B6859683B68DB681A46BF
:102D0C0000F09EF87B681B684021184600F0F5F82F
:102D1C000CE07B681A683B681B681946104600F08B
:102D2C00ECF803E00123FB7300E000BF7B68012299
:102D3C0083F83D207B68002283F83C20FB7B1846FF
:102D4C001037BD4680BD80B483B000AF786000BF43
:102D5C000C37BD4680BC704780B483B000AF786040
:102D6C0000BF0C37BD4680BC704780B483B000AF49
:102D7C00786000BF0C37BD4680BC704780B483B010
:102D8C0000AF786000BF0C37BD4680BC70470000B8
:102D9C0080B485B000AF786039607B681B68FB60DD
:102DAC007B68254A934207D07B68B3F1804F03D0F0
:102DBC007B68224A934208D1FB6823F07003FB60C6
:102DCC003B685B68FA681343FB607B681A4A934262
:102DDC0007D07B68B3F1804F03D07B68174A9342CE
:102DEC0008D1FB6823F44073FB603B68DB68FA682E
:102DFC001343FB60FB6823F080023B685B69134361
:102E0C00FB607B68FA681A603B689A687B68DA62D8
:102E1C003B681A687B689A627B68074A934203D1C5
:102E2C003B681A697B681A637B6801225A6100BF90
:102E3C001437BD4680BC7047002C01400004004094
:102E4C0080B487B000AFF860B9607A60FB681B6A29
:102E5C007B61FB681B6A23F00102FB681A62FB684A
:102E6C009B693B613B6923F0F0033B617B681B0171
:102E7C003A6913433B617B6923F00A037B617A69EE
:102E8C00BB6813437B61FB683A699A61FB687A699A
:102E9C001A6200BF1C37BD4680BC704780B487B037
:102EAC0000AFF860B9607A60FB681B6A7B61FB68F5
:102EBC001B6A23F01002FB681A62FB689B693B617A
:102ECC003B6923F470433B617B681B033A691343F2
:102EDC003B617B6923F0A0037B61BB681B017A69B2
:102EEC0013437B61FB683A699A61FB687A691A62E1
:102EFC0000BF1C37BD4680BC704780B485B000AFA6
:102F0C00786039607B689B68FB60FB6823F070031A
:102F1C00FB603A68FB68134343F00703FB607B6874
:102F2C00FA689A6000BF1437BD4680BC704780B405
:102F3C0087B000AFF860B9607A603B60FB689B6853
:102F4C007B617B6923F47F437B613B681A027B685E
:102F5C001A43BB6813437A6913437B61FB687A6934
:102F6C009A6000BF1C37BD4680BC704780B485B0EA
:102F7C0000AF786039607B6893F83C30012B01D14D
:102F8C00022341E07B68012283F83C207B6802220B
:102F9C0083F83D207B681B685B68FB607B681B6863
:102FAC009B68BB60FB6823F07003FB603B681B688D
:102FBC00FA681343FB607B681B68FA685A607B688D
:102FCC001B68144A934209D07B681B68B3F1804F8D
:102FDC0004D07B681B68104A93420CD1BB6823F069
:102FEC008003BB603B685B68BA681343BB607B685B
:102FFC001B68BA689A607B68012283F83D207B6865
:10300C00002283F83C20002318461437BD4680BCB0
:10301C00704700BF002C01400004004080B483B016
:10302C0000AF786000BF0C37BD4680BC704780B4E1
:10303C0083B000AF786000BF0C37BD4680BC7047D2
:10304C0070B500260C4D0D4C641BA410A64209D182
:10305C0000F022F800260A4D0A4C641BA410A6426C
:10306C0005D170BD55F8043B98470136EEE755F88D
:10307C00043B98470136F2E7E0300008E0300008E6
:10308C00E0300008E430000803460244934200D1CB
:10309C00704703F8011BF9E7F8B500BFF8BC08BC92
:1030AC009E467047F8B500BFF8BC08BC9E467047FA
:1030BC0000000000000000000102030406070809DC
:1030CC0002030405060708090A0B0C0D0E0F10105D
:0430DC0001020000ED
:0430E00031010008B2
:0430E4000D010008D2
:1030E80088130000B80B0000D00700000024F4008B
:0830F8001000000001000000BF
:0400000508001A15C0
:00000001FF
