:020000040800F2
:1000000000280020C11100085111000857110008F4
:100010005D1100086311000869110008000000006C
:100020000000000000000000000000006F11000848
:100030007B110008000000008711000893110008E0
:100040000912000809120008091200080912000824
:100050000912000809120008091200080912000814
:100060000912000809120008091200080912000804
:1000700009120008091200080912000809120008F4
:1000800009120008091200080912000809120008E4
:1000900009120008091200080912000809120008D4
:1000A00009120008091200080912000809120008C4
:1000B000A111000809120008000000000912000840
:1000C00009120008000000000000000009120008EA
:1000D00000000000091200080912000800000000DA
:1000E00009120008091200080912000800000000A7
:1000F0000000000000000000000000000000000000
:0C01000000000000000000005FF808F1A3
:10010C0010B5054C237833B9044B13B10448AFF345
:10011C0000800123237010BD180000200000000097
:10012C005028000808B5034B1BB103490348AFF333
:10013C00008008BD000000001C00002050280008B2
:10014C0080B483B000AF00237B6020E0144A7B684E
:10015C00012142F82310134A7B68012142F8231035
:10016C00114A7B68012142F82310104A7B68012157
:10017C0042F823100E4A7B68002142F823100D4AE6
:10018C007B68C82142F823107B6801337B607B6855
:10019C00022BDBDD00BF00BF0C37BD4680BC7047B7
:1001AC009C000020A8000020900000206C00002083
:1001BC00840000207800002080B483B000AF786009
:1001CC00094A7B6852F82330012B06D1064A7B681A
:1001DC00002142F82310012300E0002318460C37BD
:1001EC00BD4680BC704700BF8400002080B483B043
:1001FC0000AF7860044A7B68012142F8231000BFED
:10020C000C37BD4680BC70478400002080B582B09E
:10021C0000AF00237B607EE0434A7B6852F82320CA
:10022C0042497B6841F82320414A7B6852F82320DD
:10023C003D497B6841F823207B68022B21D07B68E9
:10024C00022B2ADC7B68002B03D07B68012B0CD0A3
:10025C0023E04FF40051374801F0BCFA034619462D
:10026C00334A7B6842F8231018E04FF48041314840
:10027C0001F0B0FA034619462D4A7B6842F8231068
:10028C000CE04FF400412B4801F0A4FA0346194648
:10029C00274A7B6842F8231000E000BF234A7B68A2
:1002AC0052F8232020497B6851F823309A422FD1F1
:1002BC001D4A7B6852F823201D497B6851F8233076
:1002CC009A4225D11C4A7B6852F8232018497B6836
:1002DC0051F823309A421BD0154A7B6852F82320E0
:1002EC0015497B6841F82320114A7B6852F823306A
:1002FC00002B08D17868FFF779FF104A7B68C8217A
:10030C0042F8231004E00C4A7B68012142F82310C8
:10031C007B6801337B607B68022B7FF77DAF00BF6E
:10032C0000BF0837BD4680BDA80000209C000020FF
:10033C0090000020001001406C000020780000208C
:10034C0080B400AF094B1B68094A1360094B1B684A
:10035C00094A1360094B1B68094A1360094B0122B7
:10036C001A6000BFBD4680BC704700BF0000002073
:10037C00BC00002004000020B80000200800002071
:10038C00B40000204000002080B500AF0020FFF733
:10039C0013FF0346002B07D000F088FB5E4B0B22AB
:1003AC001A605E4B02221A605B4B1B68042B00F236
:1003BC00A78001A252F823F0D9030008E903000832
:1003CC00310400087B040008C304000800F06EFB35
:1003DC00514B01221A60FFF7B3FF9AE0002000F0A6
:1003EC0089FB032000F086FB4D4B1B684D4A1360C4
:1003FC004D4B1B684D4A1360494B1B68013B484AE7
:10040C001360494B1B68013B474A1360464B1B6802
:10041C00002B77DC404B02221A60454B1B68454A87
:10042C0013606FE0052000F065FB3D4B1B683D4AF7
:10043C001360404B1B683D4A1360394B1B68013BF2
:10044C00374A13603B4B1B68013B3A4A1360344BF1
:10045C001B68002B58DC304B03221A60364B1B6890
:10046C002F4A1360354B1B682F4A13604CE0022057
:10047C0000F040FB012000F03DFB2B4B1B68294A90
:10048C001360274B1B68294A1360254B1B68013BE3
:10049C00234A1360244B1B68013B234A1360224BF5
:1004AC001B68002B32DC1C4B04221A60204B1B688F
:1004BC00204A13602AE0042000F01CFB1D4B1B6833
:1004CC00184A1360164B1B68184A1360144B1B68B0
:1004DC00013B134A1360174B1B68013B154A136011
:1004EC000F4B1B68002B13DC0B4B01221A60124BB9
:1004FC001B680B4A1360114B1B680B4A136007E017
:10050C0000BF06E000BF04E000BF02E000BF00E057
:10051C0000BF00BF80BD00BF3400002040000020A1
:10052C00BC00002038000020B80000203C00002057
:10053C0008000020B400002000000020040000206F
:10054C0080B500AF2D4B1B680D2B1ED00D2B4CDC3A
:10055C000B2B02D00C2B30D047E0002000F04AFBD4
:10056C00274B1B68274A12681146184600F062FA9E
:10057C000020FFF721FE0346002B38D01F4B0D2225
:10058C001A601F4B03221A6031E0042000F032FB8A
:10059C001B4B1B681C4A12681146184600F04AFA9D
:1005AC000020FFF709FE0346002B22D0134B0C2230
:1005BC001A60134B04221A601BE0022000F01AFB95
:1005CC000F4B1B68114A12681146184600F032FA9C
:1005DC000020FFF7F1FD0346002B0CD0074B012246
:1005EC001A60074B01221A6005E000BF04E000BF4F
:1005FC0002E000BF00E000BF00BF80BD340000205F
:10060C004000002000000020080000200400002012
:10061C0080B582B000AF78607B68002B22D10022BD
:10062C000121BD4801F0EDF800220221BA4801F089
:10063C00E8F800220421B84801F0E3F80022082170
:10064C00B54801F0DEF800221021B34801F0D9F8CA
:10065C0000222021B04801F0D4F801224021AE48FC
:10066C0001F0CFF87B68012B22D101220121AA488D
:10067C0001F0C7F800220221A74801F0C2F80022BD
:10068C000421A54801F0BDF801220821A24801F07F
:10069C00B8F801221021A04801F0B3F80122202162
:1006AC009D4801F0AEF8012240219B4801F0A9F8C9
:1006BC007B68022B22D100220121974801F0A1F87E
:1006CC0000220221944801F09CF801220421924856
:1006DC0001F097F8002208218F4801F092F80022CF
:1006EC0010218D4801F08DF8012220218A4801F05B
:1006FC0088F800224021884801F083F87B68032B9E
:10070C0022D100220121844801F07BF80022022131
:10071C00814801F076F8002204217F4801F071F83D
:10072C00002208217C4801F06CF8012210217A4843
:10073C0001F067F801222021774801F062F80022CD
:10074C004021754801F05DF87B68042B22D1012211
:10075C000121714801F055F8002202216E4801F088
:10076C0050F8002204216C4801F04BF801220821BA
:10077C00694801F046F801221021674801F041F860
:10078C0000222021644801F03CF8002240216248FC
:10079C0001F037F87B68052B22D1002201215E483D
:1007AC0001F02FF8012202215B4801F02AF8002207
:1007BC000421594801F025F800220821564801F07F
:1007CC0020F801221021544801F01BF800222021AE
:1007DC00514801F016F8002240214F4801F011F861
:1007EC007B68062B22D1002201214B4801F009F82D
:1007FC0001220221484801F004F800220421464855
:10080C0000F0FFFF00220821434800F0FAFF00220D
:10081C001021414800F0F5FF002220213E4800F055
:10082C00F0FF002240213C4800F0EBFF7B68072BD7
:10083C0022D100220121384800F0E3FF00220221DE
:10084C00354800F0DEFF00220421334800F0D9FFC8
:10085C0001220821304800F0D4FF012210212E483B
:10086C0000F0CFFF012220212B4800F0CAFF01220B
:10087C004021294800F0C5FF7B68082B22D10022BB
:10088C000121254800F0BDFF00220221224800F082
:10089C00B8FF00220421204800F0B3FF00220821F9
:1008AC001D4800F0AEFF002210211B4800F0A9FFEC
:1008BC0000222021184800F0A4FF002240211648F5
:1008CC0000F09FFF7B68092B22D1002201211248E6
:1008DC0000F097FF002202210F4800F092FF002247
:1008EC0004210D4800F08DFF002208210A4800F079
:1008FC0088FF01221021084800F083FF00222021EC
:10090C00054800F07EFF00224021034800F079FFEB
:10091C0000BF0837BD4680BD000C014080B582B0D9
:10092C0000AF78607B68032B7AD801A252F823F0D1
:10093C004D09000885090008BD090008F5090008E3
:10094C0000224021394800F05CFF01228021374809
:10095C0000F057FF01224FF48071344800F051FF32
:10096C0001224FF40071314800F04BFF304B1B68F3
:10097C001846FFF74DFE54E0012240212B4800F0B1
:10098C0040FF00228021294800F03BFF01224FF458
:10099C008071264800F035FF01224FF40071234886
:1009AC0000F02FFF224B5B681846FFF731FE38E052
:1009BC00012240211D4800F024FF012280211B4808
:1009CC0000F01FFF00224FF48071184800F019FF4F
:1009DC0001224FF40071154800F013FF144B9B6873
:1009EC001846FFF715FE1CE0012240210F4800F0CD
:1009FC0008FF012280210D4800F003FF01224FF473
:100A0C0080710A4800F0FDFE00224FF40071074887
:100A1C0000F0F7FE064BDB681846FFF7F9FD00E027
:100A2C0000BF00BF0837BD4680BD00BF00080140B5
:100A3C004400002080B483B000AF786039607B68DC
:100A4C00184A82FB03129210DB17D31A164A136052
:100A5C007968144B83FB01239A10CB17D21A1346D7
:100A6C009B0013445B00CA1A0F4B5A603B680D4A3B
:100A7C0082FB03129210DB17D31A0B4A936039686E
:100A8C00084B83FB01239A10CB17D21A13469B00F9
:100A9C0013445B00CA1A044BDA6000BF0C37BD4626
:100AAC0080BC7047676666664400002080B500AF66
:100ABC00012201210E4800F0A4FE012208210C485D
:100ACC0000F09FFE01220221094800F09AFE01224B
:100ADC001021074800F095FE01220421044800F083
:100AEC0090FE01222021024800F08BFE00BF80BD49
:100AFC000008014080B582B000AF0346FB71FB7962
:100B0C00052B6FD801A252F823F000BF310B00085F
:100B1C00510B0008710B0008910B0008B10B000879
:100B2C00D10B000800220121314800F06AFE01229D
:100B3C0004212F4800F065FE012202212C4800F010
:100B4C0060FE50E000220821294800F05AFE0122E4
:100B5C002021274800F055FE01221021244800F0E6
:100B6C0050FE40E001220121214800F04AFE002203
:100B7C0004211F4800F045FE012202211C4800F010
:100B8C0040FE30E001220821194800F03AFE002214
:100B9C002021174800F035FE01221021144800F0E6
:100BAC0030FE20E001220121114800F02AFE012232
:100BBC0004210F4800F025FE002202210C4800F011
:100BCC0020FE10E001220821094800F01AFE012243
:100BDC002021074800F015FE00221021044800F0E7
:100BEC0010FE00E000BF00BF0837BD4680BD00BF4F
:100BFC000008014080B582B000AF0346FB71FB7961
:100C0C00042B40D0042B5BDC002B02D0022B1DD01C
:100C1C0056E001212D4800F00CFE012204212B4846
:100C2C0000F0EFFD01220221284800F0EAFD082126
:100C3C00264800F0FEFD01222021244800F0E1FDB1
:100C4C0001221021214800F0DCFD3AE001220121B3
:100C5C001E4800F0D6FD04211C4800F0EAFD0122DC
:100C6C0002211A4800F0CDFD01220821174800F09E
:100C7C00C8FD2021154800F0DCFD0122102113488D
:100C8C0000F0BFFD1DE001220121104800F0B9FD6C
:100C9C00012204210D4800F0B4FD02210B4800F0A4
:100CAC00C8FD01220821094800F0ABFD01222021DA
:100CBC00064800F0A6FD1021044800F0BAFD00E043
:100CCC0000BF00BF0837BD4680BD00BF0008014013
:100CDC0080B582B000AF00F093FA00F055F800F048
:100CEC008FF800F0D9F8214801F0E8F9FFF728FA5D
:100CFC00642000F067F9642000F050F9322000F015
:100D0C0075F900237B60FFF73FFB194B1B68002B29
:100D1C0010D0642000F042F9FFF736FB154B1B682E
:100D2C00012B07D1144B1B68144A12681146184644
:100D3C00FFF780FE124B1B68002B0DD0192000F022
:100D4C0041F97B685A1C7A601846FFF7E7FD7B680F
:100D5C00032B01DD00237B600A4B1B68002BD4D0D6
:100D6C00322000F043F9FFF7EBFBCEE7C000002088
:100D7C005400002040000020380000203C000020DF
:100D8C005C0000206400002080B590B000AF07F13B
:100D9C00180328220021184601F04CFD3B1D0022AF
:100DAC001A605A609A60DA601A610223BB610123EF
:100DBC00BB621023FB6200237B6307F11803184608
:100DCC0000F050FD0346002B01D000F0E1F80F239A
:100DDC007B600023BB600023FB6000233B6100238E
:100DEC007B613B1D0021184600F0BCFF0346002B25
:100DFC0001D000F0CDF800BF4037BD4680BD0000EB
:100E0C0080B586B000AF07F1080300221A605A6063
:100E1C009A60DA603B4600221A605A601D4B4FF014
:100E2C0080421A601B4B41F63F725A60194B0022EC
:100E3C009A60184B0922DA60164B00221A61154B86
:100E4C0000229A61134801F0E9F80346002B01D007
:100E5C0000F09EF84FF48053BB6007F1080319466D
:100E6C000C4801F07FFA0346002B01D000F090F8FB
:100E7C0000233B6000237B603B461946054801F08C
:100E8C004BFC0346002B01D000F082F800BF183752
:100E9C00BD4680BDC000002080B588B000AF07F112
:100EAC00100300221A605A609A60DA602E4B9B691C
:100EBC002D4A43F0100393612B4B9B6903F01003F5
:100ECC00FB60FB68284B9B69274A43F00403936142
:100EDC00254B9B6903F00403BB60BB68224B9B69E9
:100EEC00214A43F0080393611F4B9B6903F00803ED
:100EFC007B607B68002240F2FF311C4800F081FCD3
:100F0C0000227F211A4800F07CFC4FF460433B61C7
:100F1C0000237B610123BB6107F1100319461548BF
:100F2C0000F0DEFA40F2FF333B6101237B610023CA
:100F3C00BB610223FB6107F1100319460B4800F05B
:100F4C00CFFA7F233B6101237B610023BB6102232A
:100F5C00FB6107F110031946054800F0C1FA00BF08
:100F6C002037BD4680BD00BF001002400008014084
:100F7C00000C01400010014080B582B000AF7860D9
:100F8C00FFF744F900F046F800BF0837BD4680BDB6
:100F9C0080B400AF72B600BFFEE7000080B483B02F
:100FAC0000AF7860054A7B681360054B00221A601D
:100FBC0000BF0C37BD4680BC704700BF58000020F6
:100FCC005400002080B483B000AF7860054A7B6881
:100FDC001360054B00221A6000BF0C37BD4680BC65
:100FEC00704700BF600000205C00002080B483B01C
:100FFC0000AF7860054A7B681360054B00221A60CD
:10100C0000BF0C37BD4680BC704700BF6800002095
:10101C006400002080B400AF194B1B68002B0BDB65
:10102C00174B1B68013B164A1360154B1B68002BB2
:10103C0002DC144B01221A60134B1B68002B0BDBD8
:10104C00114B1B68013B104A13600F4B1B68002BA4
:10105C0002DC0E4B01221A600D4B1B68002B0BDBC4
:10106C000B4B1B68013B0A4A1360094B1B68002B96
:10107C0002DC084B01221A6000BFBD4680BC7047E1
:10108C005800002054000020600000205C0000206C
:10109C00680000206400002080B485B000AF154BC0
:1010AC009B69144A43F001039361124B9B6903F053
:1010BC000103BB60BB680F4BDB690E4A43F08053E6
:1010CC00D3610C4BDB6903F080537B607B680A4B6C
:1010DC005B68FB60FB6823F0E063FB60FB6843F03C
:1010EC008063FB60044AFB68536000BF1437BD4645
:1010FC0080BC7047001002400000014080B584B0F5
:10110C0000AF78607B681B68B3F1804F13D10C4B38
:10111C00DB690B4A43F00103D361094BDB6903F034
:10112C000103FB60FB68002200211C2000F0A1F9E8
:10113C001C2000F0BAF900BF1037BD4680BD00BFBF
:10114C000010024080B400AFFEE780B400AFFEE7B1
:10115C0080B400AFFEE780B400AFFEE780B400AF10
:10116C00FEE780B400AF00BFBD4680BC704780B4C2
:10117C0000AF00BFBD4680BC704780B400AF00BF5D
:10118C00BD4680BC704780B500AF00F07FF800BF53
:10119C0080BD000080B500AF024800F0DBFF00BF4F
:1011AC0080BD00BFC000002080B400AF00BFBD46B2
:1011BC0080BC7047FFF7F8FF0B480C490C4A002322
:1011CC0002E0D458C4500433C4188C42F9D3094AF1
:1011DC00094C002301E013600432A242FBD301F05E
:1011EC0005FBFFF775FD704700000020180000207C
:1011FC0094280008180000200C010020FEE70000D5
:10120C0080B500AF084B1B68074A43F0100313600E
:10121C00032000F023F90F2000F008F8FFF73CFF43
:10122C000023184680BD00BF0020024080B582B06C
:10123C0000AF7860124B1A68124B1B7819464FF4AA
:10124C007A73B3FBF1F3B2FBF3F3184600F03BF9FE
:10125C000346002B01D001230EE07B680F2B0AD82C
:10126C00002279684FF0FF3000F003F9064A7B68E2
:10127C001360002300E0012318460837BD4680BDEB
:10128C000C000020140000201000002080B400AFDF
:10129C00054B1B781A46054B1B681344034A136015
:1012AC0000BFBD4680BC7047140000200801002020
:1012BC0080B400AF024B1B681846BD4680BC70471B
:1012CC000801002080B485B000AF78607B6803F023
:1012DC000703FB600C4BDB68BB60BA684FF6FF037F
:1012EC001340BB60FB681A02BB68134343F0BF6337
:1012FC0043F40033BB60044ABB68D36000BF1437AF
:10130C00BD4680BC704700BF00ED00E080B400AF6C
:10131C00044BDB681B0A03F007031846BD4680BC70
:10132C00704700BF00ED00E080B483B000AF03460F
:10133C00FB7197F90730002B0BDBFB7903F01F02D5
:10134C00064997F907305B09012000FA02F241F8CF
:10135C00232000BF0C37BD4680BC704700E100E085
:10136C0080B483B000AF03463960FB7197F9073046
:10137C00002B0ADB3B68DAB20C4997F907301201F3
:10138C00D2B20B4483F800230AE03B68DAB2084976
:10139C00FB7903F00F03043B1201D2B20B441A7613
:1013AC0000BF0C37BD4680BC704700BF00E100E0B9
:1013BC0000ED00E080B489B000AFF860B9607A60ED
:1013CC00FB6803F00703FB61FB69C3F10703042B04
:1013DC0028BF0423BB61FB690433062B02D9FB69CC
:1013EC00033B00E000237B614FF0FF32BB6902FA44
:1013FC0003F3DA43BB681A407B699A404FF0FF3124
:10140C007B6901FA03F3D9437B680B4013431846FD
:10141C002437BD4680BC704780B582B000AF786081
:10142C007B68013BB3F1807F01D301230FE00A4AB3
:10143C007B68013B53600F214FF0FF30FFF790FFAB
:10144C00054B00229A60044B07221A6000231846B1
:10145C000837BD4680BD00BF10E000E080B582B00B
:10146C0000AF78607868FFF72DFF00BF0837BD46E6
:10147C0080BD80B586B000AF0346B9607A60FB735F
:10148C0000237B61FFF742FF78617A68B96878695D
:10149C00FFF790FF024697F90F3011461846FFF7F9
:1014AC005FFF00BF1837BD4680BD80B582B000AF6E
:1014BC000346FB7197F907301846FFF735FF00BF5D
:1014CC000837BD4680BD80B582B000AF78607868C3
:1014DC00FFF7A2FF034618460837BD4680BD000043
:1014EC0080B48BB000AF7860396000237B6200233E
:1014FC003B6248E101227B6A02FA03F3FB613B6821
:10150C001B68FA691340BB61BA69FB699A4240F0E7
:10151C0037813B685B68A34A93425ED0A14A9342F1
:10152C0075D8A14A934258D09F4A93426FD89F4A8C
:10153C00934252D09D4A934269D89D4A93424CD0D3
:10154C009B4A934263D89B4A934246D0994A934212
:10155C005DD8122B2AD8122B59D801A252F823F09D
:10156C00E7150008C1150008D3150008151600086A
:10157C001B1600081B1600081B1600081B1600087B
:10158C001B1600081B1600081B1600081B1600086B
:10159C001B1600081B1600081B1600081B1600085B
:1015AC001B160008C9150008DD150008824A934275
:1015BC0013D02CE03B68DB683B6229E03B68DB68BE
:1015CC0004333B6224E03B68DB6808333B621FE07A
:1015DC003B68DB680C333B621AE03B689B68002B72
:1015EC0002D104233B6213E03B689B68012B05D1BD
:1015FC0008233B627B68FA691A6109E008233B62A5
:10160C007B68FA695A6103E000233B6200E000BF8B
:10161C00BB69FF2B01D87B6801E07B6804337B61DD
:10162C00BB69FF2B02D87B6A9B0002E07B6A083BFC
:10163C009B003B617B691A680F213B6901FA03F33C
:10164C00DB431A40396A3B6901FA03F31A437B699D
:10165C001A603B685B6803F08053002B00F09080AD
:10166C00564B9B69554A43F001039361534B9B695D
:10167C0003F00103BB60BB68514A7B6A9B080233D1
:10168C0052F82330FB607B6A03F003039B000F22AC
:10169C0002FA03F3DB43FA681340FB607B68494AA8
:1016AC0093420DD07B68484A934207D07B68474AE7
:1016BC00934201D1022304E0032302E0012300E062
:1016CC0000237A6A02F0030292009340FA681343F3
:1016DC00FB603B497B6A9B080233FA6841F8232084
:1016EC003B685B6803F48013002B06D0384B9A6878
:1016FC003749BB6913438B6006E0354B9A68BB696D
:10170C00DB43334913408B603B685B6803F4001385
:10171C00002B06D02E4BDA682D49BB691343CB60E6
:10172C0006E02B4BDA68BB69DB4329491340CB60DD
:10173C003B685B6803F40033002B06D0244B5A68DB
:10174C002349BB6913434B6006E0214B5A68BB69C4
:10175C00DB431F4913404B603B685B6803F48033E9
:10176C00002B06D01A4B1A681949BB6913430B603E
:10177C0006E0174B1A68BB69DB43154913400B6035
:10178C007B6A01337B623B681A687B6A22FA03F33B
:10179C00002B7FF4AFAE00BF00BF2C37BD4680BC22
:1017AC00704700BF00003210000031100000221002
:1017BC000000211000001210000011100010024057
:1017CC000000014000080140000C014000100140E5
:1017DC000004014080B485B000AF78600B467B807C
:1017EC007B689A687B881340002B02D00123FB7323
:1017FC0001E00023FB73FB7B18461437BD4680BC0D
:10180C00704780B483B000AF78600B467B80134682
:10181C007B707B78002B03D07A887B681A6103E09D
:10182C007B881A047B681A6100BF0C37BD4680BCEC
:10183C00704780B485B000AF78600B467B807B68C6
:10184C00DB68FB607A88FB6813401A04FB68D94399
:10185C007B880B401A437B681A6100BF1437BD4666
:10186C0080BC704780B586B000AF78607B68002B79
:10187C0001D101236CE27B681B6803F00103002B90
:10188C0000F08780924B5B6803F00C03042B0CD0A8
:10189C008F4B5B6803F00C03082B12D18C4B5B68ED
:1018AC0003F48033B3F5803F0BD1894B1B6803F4F1
:1018BC000033002B6CD07B685B68002B68D1012354
:1018CC0046E27B685B68B3F5803F06D1804B1B68B2
:1018DC007F4A43F4803313602EE07B685B68002BF7
:1018EC000CD17B4B1B687A4A23F480331360784B02
:1018FC001B68774A23F4802313601DE07B685B68C8
:10190C00B3F5A02F0CD1724B1B68714A43F48023A2
:10191C0013606F4B1B686E4A43F4803313600BE00B
:10192C006B4B1B686A4A23F480331360684B1B684B
:10193C00674A23F4802313607B685B68002B13D009
:10194C00FFF7B6FC386108E0FFF7B2FC02463B69D2
:10195C00D31A642B01D90323FAE15D4B1B6803F402
:10196C000033002BF0D014E0FFF7A2FC386108E044
:10197C00FFF79EFC02463B69D31A642B01D9032363
:10198C00E6E1534B1B6803F40033002BF0D100E06D
:10199C0000BF7B681B6803F00203002B63D04C4B29
:1019AC005B6803F00C03002B0BD0494B5B6803F016
:1019BC000C03082B1CD1464B5B6803F48033002BC3
:1019CC0016D1434B1B6803F00203002B05D07B6838
:1019DC001B69012B01D00123BAE13D4B1B6823F09D
:1019EC00F8027B685B69DB00394913430B603AE012
:1019FC007B681B69002B20D0364B01221A60FFF745
:101A0C0057FC386108E0FFF753FC02463B69D31AD8
:101A1C00022B01D903239BE12D4B1B6803F002031E
:101A2C00002BF0D02A4B1B6823F0F8027B685B6913
:101A3C00DB00274913430B6015E0264B00221A608C
:101A4C00FFF736FC386108E0FFF732FC02463B69D1
:101A5C00D31A022B01D903237AE11D4B1B6803F027
:101A6C000203002BF0D17B681B6803F00803002BEA
:101A7C003AD07B689B69002B19D0174B01221A6056
:101A8C00FFF716FC386108E0FFF712FC02463B69D1
:101A9C00D31A022B01D903235AE10D4B5B6A03F0D5
:101AAC000203002BF0D0012000F09AFA1CE00A4B44
:101ABC0000221A60FFF7FCFB38610FE0FFF7F8FB20
:101ACC0002463B69D31A022B08D9032340E100BF1D
:101ADC000010024000004242800442429E4B5B6A6E
:101AEC0003F00203002BE9D17B681B6803F00403AD
:101AFC00002B00F0A6800023FB75974BDB6903F0ED
:101B0C008053002B0DD1944BDB69934A43F08053E7
:101B1C00D361914BDB6903F08053BB60BB6801233D
:101B2C00FB758E4B1B6803F48073002B18D18B4B09
:101B3C001B688A4A43F480731360FFF7B9FB386162
:101B4C0008E0FFF7B5FB02463B69D31A642B01D9B9
:101B5C000323FDE0814B1B6803F48073002BF0D052
:101B6C007B68DB68012B06D17B4B1B6A7A4A43F0FE
:101B7C00010313622DE07B68DB68002B0CD1764BE4
:101B8C001B6A754A23F001031362734B1B6A724A7A
:101B9C0023F0040313621CE07B68DB68052B0CD17B
:101BAC006D4B1B6A6C4A43F0040313626A4B1B6A4D
:101BBC00694A43F0010313620BE0674B1B6A664AE8
:101BCC0023F001031362644B1B6A634A23F0040382
:101BDC0013627B68DB68002B15D0FFF769FB38615B
:101BEC000AE0FFF765FB02463B69D31A41F28832E3
:101BFC00934201D90323ABE0574B1B6A03F002035A
:101C0C00002BEED014E0FFF753FB38610AE0FFF72E
:101C1C004FFB02463B69D31A41F28832934201D9F9
:101C2C00032395E04C4B1B6A03F00203002BEED10F
:101C3C00FB7D012B05D1484BDB69474A23F08053D0
:101C4C00D3617B68DB69002B00F08180424B5B68C1
:101C5C0003F00C03082B61D07B68DB69022B46D1A7
:101C6C003F4B00221A60FFF723FB386108E0FFF7B7
:101C7C001FFB02463B69D31A022B01D9032367E0F1
:101C8C00354B1B6803F00073002BF0D17B681B6A8B
:101C9C00B3F5803F08D1304B5B6823F400327B688E
:101CAC009B682D4913434B602B4B5B6823F47412D8
:101CBC007B68196A7B685B6A0B43274913434B604B
:101CCC00274B01221A60FFF7F3FA386108E0FFF79F
:101CDC00EFFA02463B69D31A022B01D9032337E0F2
:101CEC001D4B1B6803F00073002BF0D02FE01C4B36
:101CFC0000221A60FFF7DCFA386108E0FFF7D8FA27
:101D0C0002463B69D31A022B01D9032320E0124B64
:101D1C001B6803F00073002BF0D118E07B68DB69C3
:101D2C00012B01D1012313E00B4B5B68FB60FB68BB
:101D3C0003F480327B681B6A9A4206D1FB6803F479
:101D4C0070127B685B6A9A4201D0012300E0002389
:101D5C0018461837BD4680BD001002400070004088
:101D6C006000424280B584B000AF786039607B6817
:101D7C00002B01D10123D0E06A4B1B6803F0070351
:101D8C003A689A4210D9674B1B6823F007026549E1
:101D9C003B6813430B60634B1B6803F007033A6803
:101DAC009A4201D00123B8E07B681B6803F0020360
:101DBC00002B20D07B681B6803F00403002B05D09C
:101DCC00594B5B68584A43F4E06353607B681B686B
:101DDC0003F00803002B05D0534B5B68524A43F4C5
:101DEC0060535360504B5B6823F0F0027B689B6838
:101DFC004D4913434B607B681B6803F00103002BB8
:101E0C0040D07B685B68012B07D1474B1B6803F400
:101E1C000033002B15D101237FE07B685B68022B1C
:101E2C0007D1414B1B6803F00073002B09D1012330
:101E3C0073E03D4B1B6803F00203002B01D101231F
:101E4C006BE0394B5B6823F003027B685B683649B7
:101E5C0013434B60FFF72CFAF8600AE0FFF728FAFF
:101E6C000246FB68D31A41F28832934201D903230C
:101E7C0053E02D4B5B6803F00C027B685B689B00A6
:101E8C009A42EBD1274B1B6803F007033A689A423E
:101E9C0010D2244B1B6823F0070222493B681343E2
:101EAC000B60204B1B6803F007033A689A4201D081
:101EBC00012332E07B681B6803F00403002B08D07D
:101ECC00194B5B6823F4E0627B68DB6816491343AB
:101EDC004B607B681B6803F00803002B09D0124B86
:101EEC005B6823F460527B681B69DB000E4913436B
:101EFC004B6000F021F802460B4B5B681B0903F0AA
:101F0C000F030A49CB5C22FA03F3094A1360094B0D
:101F1C001B681846FFF78AF9002318461037BD4690
:101F2C0080BD00BF0020024000100240682800085D
:101F3C000C0000201000002080B487B000AF0023FC
:101F4C00FB600023BB6000237B6100237B600023CC
:101F5C003B611E4B5B68FB60FB6803F00C03042BBE
:101F6C0002D0082B03D027E0194B3B6127E0FB681C
:101F7C009B0C03F00F03174AD35C7B60FB6803F4E4
:101F8C008033002B10D0114B5B685B0C03F001030A
:101F9C00114AD35CBB607B680D4A02FB03F2BB6841
:101FAC00B2FBF3F37B6104E07B680C4A02FB03F3A6
:101FBC007B617B693B6102E0054B3B6100BF3B6988
:101FCC0018461C37BD4680BC704700BF001002404D
:101FDC0000127A00782800088828000800093D00C3
:101FEC0080B485B000AF78600A4B1B680A4AA2FB2C
:101FFC0003235B0A7A6802FB03F3FB6000BFFB68F8
:10200C005A1EFA60002BF9D100BF00BF1437BD4631
:10201C0080BC70470C000020D34D621080B582B09C
:10202C0000AF78607B68002B01D1012341E07B6815
:10203C0093F83D30DBB2002B06D17B68002283F88D
:10204C003C207868FFF75AF87B68022283F83D2021
:10205C007B681A687B6804331946104600F06EFAE8
:10206C007B68012283F846207B68012283F83E209E
:10207C007B68012283F83F207B68012283F8402093
:10208C007B68012283F841207B68012283F842207F
:10209C007B68012283F843207B68012283F844206B
:1020AC007B68012283F845207B68012283F83D2060
:1020BC00002318460837BD4680BD000080B485B0AB
:1020CC0000AF78607B6893F83D30DBB2012B01D018
:1020DC00012335E07B68022283F83D207B681B6876
:1020EC00DA687B681B6842F00102DA607B681B6867
:1020FC00164A934209D07B681B68B3F1804F04D019
:10210C007B681B68124A934211D17B681B689B68E1
:10211C0003F00703FB60FB68062B10D07B681B6881
:10212C001A687B681B6842F001021A6007E07B6842
:10213C001B681A687B681B6842F001021A60002356
:10214C0018461437BD4680BC704700BF002C0140B8
:10215C000004004080B582B000AF78607B681B68DB
:10216C001B6903F00203022B22D17B681B68DB681E
:10217C0003F00203022B1BD17B681B686FF0020279
:10218C001A617B6801221A777B681B689B6903F0D4
:10219C000303002B03D0786800F0B4F905E07868ED
:1021AC0000F0A7F9786800F0B6F97B6800221A777E
:1021BC007B681B681B6903F00403042B22D17B682A
:1021CC001B68DB6803F00403042B1BD17B681B68C2
:1021DC006FF004021A617B6802221A777B681B6815
:1021EC009B6903F44073002B03D0786800F08AF9E4
:1021FC0005E0786800F07DF9786800F08CF97B6870
:10220C0000221A777B681B681B6903F00803082BF4
:10221C0022D17B681B68DB6803F00803082B1BD1F9
:10222C007B681B686FF008021A617B6804221A77BE
:10223C007B681B68DB6903F00303002B03D0786811
:10224C0000F060F905E0786800F053F9786800F068
:10225C0062F97B6800221A777B681B681B6903F0A4
:10226C001003102B22D17B681B68DB6803F0100372
:10227C00102B1BD17B681B686FF010021A617B68F6
:10228C0008221A777B681B68DB6903F44073002B08
:10229C0003D0786800F036F905E0786800F029F989
:1022AC00786800F038F97B6800221A777B681B6825
:1022BC001B6903F00103012B0ED17B681B68DB68E3
:1022CC0003F00103012B07D17B681B686FF001023F
:1022DC001A617868FEF750FE7B681B681B6903F077
:1022EC008003802B0ED17B681B68DB6803F08003B6
:1022FC00802B07D17B681B686FF080021A617868AD
:10230C0000F06BFA7B681B681B6903F04003402BE1
:10231C000ED17B681B68DB6803F04003402B07D1B0
:10232C007B681B686FF040021A61786800F0FCF85B
:10233C007B681B681B6903F02003202B0ED17B6884
:10234C001B68DB6803F02003202B07D17B681B681C
:10235C006FF020021A61786800F036FA00BF083777
:10236C00BD4680BD80B584B000AF78603960002375
:10237C00FB737B6893F83C30012B01D10223B4E052
:10238C007B68012283F83C207B68022283F83D2085
:10239C007B681B689B68BB60BB6823F07703BB60E2
:1023AC00BB6823F47F43BB607B681B68BA689A6088
:1023BC003B681B68B3F5005F3ED0B3F5005F00F2DD
:1023CC008780B3F5805F00F08680B3F5805F7FD89F
:1023DC00702B1AD0702B7BD8602B50D0602B77D8F9
:1023EC00502B3CD0502B73D8402B58D0402B6FD84F
:1023FC00302B64D0302B6BD8202B60D0202B67D89F
:10240C00002B5CD0102B5AD062E07B6818683B68BC
:10241C0099683B685A683B68DB6800F05EF97B683A
:10242C001B689B68BB60BB6843F07703BB607B6831
:10243C001B68BA689A604FE07B6818683B689968BB
:10244C003B685A683B68DB6800F047F97B681B689F
:10245C009A687B681B6842F480429A603CE07B6817
:10246C0018683B6859683B68DB681A4600F0BEF890
:10247C007B681B685021184600F015F92CE07B682E
:10248C0018683B6859683B68DB681A4600F0DCF852
:10249C007B681B686021184600F005F91CE07B681E
:1024AC0018683B6859683B68DB681A4600F09EF870
:1024BC007B681B684021184600F0F5F80CE07B683F
:1024CC001A683B681B681946104600F0ECF803E0EC
:1024DC000123FB7300E000BF7B68012283F83D20E1
:1024EC007B68002283F83C20FB7B18461037BD46E6
:1024FC0080BD80B483B000AF786000BF0C37BD46A0
:10250C0080BC704780B483B000AF786000BF0C37DC
:10251C00BD4680BC704780B483B000AF786000BF0C
:10252C000C37BD4680BC704780B483B000AF786078
:10253C0000BF0C37BD4680BC7047000080B485B02E
:10254C0000AF786039607B681B68FB607B68254A4C
:10255C00934207D07B68B3F1804F03D07B68224A4B
:10256C00934208D1FB6823F07003FB603B685B6807
:10257C00FA681343FB607B681A4A934207D07B6866
:10258C00B3F1804F03D07B68174A934208D1FB68A4
:10259C0023F44073FB603B68DB68FA681343FB6011
:1025AC00FB6823F080023B685B691343FB607B682C
:1025BC00FA681A603B689A687B68DA623B681A684A
:1025CC007B689A627B68074A934203D13B681A691D
:1025DC007B681A637B6801225A6100BF1437BD46C1
:1025EC0080BC7047002C01400004004080B487B0D0
:1025FC0000AFF860B9607A60FB681B6A7B61FB68AE
:10260C001B6A23F00102FB681A62FB689B693B6141
:10261C003B6923F0F0033B617B681B013A69134370
:10262C003B617B6923F00A037B617A69BB681343C6
:10263C007B61FB683A699A61FB687A691A6200BF30
:10264C001C37BD4680BC704780B487B000AFF860C3
:10265C00B9607A60FB681B6A7B61FB681B6A23F0BC
:10266C001002FB681A62FB689B693B613B6923F4AF
:10267C0070433B617B681B033A6913433B617B6985
:10268C0023F0A0037B61BB681B017A6913437B6158
:10269C00FB683A699A61FB687A691A6200BF1C3759
:1026AC00BD4680BC704780B485B000AF786039609F
:1026BC007B689B68FB60FB6823F07003FB603A68E7
:1026CC00FB68134343F00703FB607B68FA689A606E
:1026DC0000BF1437BD4680BC704780B487B000AFD4
:1026EC00F860B9607A603B60FB689B687B617B69D2
:1026FC0023F47F437B613B681A027B681A43BB68F7
:10270C0013437A6913437B61FB687A699A6000BF53
:10271C001C37BD4680BC704780B485B000AF786074
:10272C0039607B6893F83C30012B01D1022341E0E6
:10273C007B68012283F83C207B68022283F83D20D1
:10274C007B681B685B68FB607B681B689B68BB6075
:10275C00FB6823F07003FB603B681B68FA6813434B
:10276C00FB607B681B68FA685A607B681B68144ABC
:10277C00934209D07B681B68B3F1804F04D07B680F
:10278C001B68104A93420CD1BB6823F08003BB60DA
:10279C003B685B68BA681343BB607B681B68BA68AC
:1027AC009A607B68012283F83D207B68002283F8C5
:1027BC003C20002318461437BD4680BC704700BF30
:1027CC00002C01400004004080B483B000AF78605E
:1027DC0000BF0C37BD4680BC704780B483B000AFDF
:1027EC00786000BF0C37BD4680BC704770B50026C2
:1027FC000C4D0D4C641BA410A64209D100F022F81C
:10280C0000260A4D0A4C641BA410A64205D170BDCB
:10281C0055F8043B98470136EEE755F8043B9847CA
:10282C000136F2E78C2800088C2800088C28000858
:10283C009028000803460244934200D1704703F8E5
:10284C00011BF9E7F8B500BFF8BC08BC9E46704701
:0C285C00F8B500BFF8BC08BC9E467047F1
:102868000000000000000000010203040607080938
:1028780002030405060708090A0B0C0D0E0F1010B9
:042888000102000049
:04288C00310100080E
:042890000D0100082E
:102894000500000003000000020000000024F40012
:0828A40010000000010000001B
:04000005080011C11D
:00000001FF
